{
  "contractName": "Lottery",
  "abi": [
    {
      "constant": true,
      "inputs": [],
      "name": "manager",
      "outputs": [
        {
          "name": "",
          "type": "address"
        }
      ],
      "payable": false,
      "stateMutability": "view",
      "type": "function"
    },
    {
      "constant": true,
      "inputs": [],
      "name": "lotteryOpen",
      "outputs": [
        {
          "name": "",
          "type": "bool"
        }
      ],
      "payable": false,
      "stateMutability": "view",
      "type": "function"
    },
    {
      "constant": true,
      "inputs": [
        {
          "name": "",
          "type": "uint256"
        }
      ],
      "name": "players",
      "outputs": [
        {
          "name": "",
          "type": "address"
        }
      ],
      "payable": false,
      "stateMutability": "view",
      "type": "function"
    },
    {
      "inputs": [],
      "payable": false,
      "stateMutability": "nonpayable",
      "type": "constructor"
    },
    {
      "anonymous": false,
      "inputs": [
        {
          "indexed": false,
          "name": "winner",
          "type": "address"
        },
        {
          "indexed": false,
          "name": "gains",
          "type": "uint256"
        }
      ],
      "name": "LotteryDrawnEvent",
      "type": "event"
    },
    {
      "anonymous": false,
      "inputs": [
        {
          "indexed": false,
          "name": "player",
          "type": "address"
        },
        {
          "indexed": false,
          "name": "pool",
          "type": "uint256"
        }
      ],
      "name": "PlayerEnteredEvent",
      "type": "event"
    },
    {
      "constant": false,
      "inputs": [],
      "name": "enter",
      "outputs": [],
      "payable": true,
      "stateMutability": "payable",
      "type": "function"
    },
    {
      "constant": false,
      "inputs": [
        {
          "name": "randomNumber",
          "type": "uint256"
        }
      ],
      "name": "pickWinner",
      "outputs": [],
      "payable": false,
      "stateMutability": "nonpayable",
      "type": "function"
    },
    {
      "constant": true,
      "inputs": [],
      "name": "getPlayers",
      "outputs": [
        {
          "name": "",
          "type": "address[]"
        }
      ],
      "payable": false,
      "stateMutability": "view",
      "type": "function"
    },
    {
      "constant": true,
      "inputs": [],
      "name": "getBalance",
      "outputs": [
        {
          "name": "",
          "type": "uint256"
        }
      ],
      "payable": false,
      "stateMutability": "view",
      "type": "function"
    }
  ],
  "bytecode": "0x608060405234801561001057600080fd5b50336000806101000a81548173ffffffffffffffffffffffffffffffffffffffff021916908373ffffffffffffffffffffffffffffffffffffffff1602179055506001600260006101000a81548160ff0219169083151502179055506107ac8061007b6000396000f300608060405260043610610083576000357c0100000000000000000000000000000000000000000000000000000000900463ffffffff16806312065fe014610088578063481c6a75146100b35780638b5b9ccc1461010a578063c60c4ae914610176578063e97dcb62146101a5578063f71d96cb146101af578063f737d21d1461021c575b600080fd5b34801561009457600080fd5b5061009d610249565b6040518082815260200191505060405180910390f35b3480156100bf57600080fd5b506100c8610268565b604051808273ffffffffffffffffffffffffffffffffffffffff1673ffffffffffffffffffffffffffffffffffffffff16815260200191505060405180910390f35b34801561011657600080fd5b5061011f61028d565b6040518080602001828103825283818151815260200191508051906020019060200280838360005b83811015610162578082015181840152602081019050610147565b505050509050019250505060405180910390f35b34801561018257600080fd5b5061018b61031b565b604051808215151515815260200191505060405180910390f35b6101ad61032e565b005b3480156101bb57600080fd5b506101da60048036038101908080359060200190929190505050610448565b604051808273ffffffffffffffffffffffffffffffffffffffff1673ffffffffffffffffffffffffffffffffffffffff16815260200191505060405180910390f35b34801561022857600080fd5b5061024760048036038101908080359060200190929190505050610486565b005b60003073ffffffffffffffffffffffffffffffffffffffff1631905090565b6000809054906101000a900473ffffffffffffffffffffffffffffffffffffffff1681565b6060600180548060200260200160405190810160405280929190818152602001828054801561031157602002820191906000526020600020905b8160009054906101000a900473ffffffffffffffffffffffffffffffffffffffff1673ffffffffffffffffffffffffffffffffffffffff16815260200190600101908083116102c7575b5050505050905090565b600260009054906101000a900460ff1681565b600260009054906101000a900460ff16151561034957600080fd5b66470de4df8200003411151561035e57600080fd5b60013390806001815401808255809150509060018203906000526020600020016000909192909190916101000a81548173ffffffffffffffffffffffffffffffffffffffff021916908373ffffffffffffffffffffffffffffffffffffffff160217905550507f9310038052669c9559169b3763a330c45d04bf679413d4997ace3816959a8d97333073ffffffffffffffffffffffffffffffffffffffff1631604051808373ffffffffffffffffffffffffffffffffffffffff1673ffffffffffffffffffffffffffffffffffffffff1681526020018281526020019250505060405180910390a1565b60018181548110151561045757fe5b906000526020600020016000915054906101000a900473ffffffffffffffffffffffffffffffffffffffff1681565b6000806000809054906101000a900473ffffffffffffffffffffffffffffffffffffffff1673ffffffffffffffffffffffffffffffffffffffff163373ffffffffffffffffffffffffffffffffffffffff161415156104e457600080fd5b6000600260006101000a81548160ff0219169083151502179055506001805490508381151561050f57fe5b0691503073ffffffffffffffffffffffffffffffffffffffff1631905060018281548110151561053b57fe5b9060005260206000200160009054906101000a900473ffffffffffffffffffffffffffffffffffffffff1673ffffffffffffffffffffffffffffffffffffffff166108fc3073ffffffffffffffffffffffffffffffffffffffff16319081150290604051600060405180830381858888f193505050501580156105c2573d6000803e3d6000fd5b507f6336e4e7beaecacad27b85f59f30329b0b7e2d238f691f51b58079d13aaec8796001838154811015156105f357fe5b9060005260206000200160009054906101000a900473ffffffffffffffffffffffffffffffffffffffff1682604051808373ffffffffffffffffffffffffffffffffffffffff1673ffffffffffffffffffffffffffffffffffffffff1681526020018281526020019250505060405180910390a160006040519080825280602002602001820160405280156106975781602001602082028038833980820191505090505b50600190805190602001906106ad9291906106b3565b50505050565b82805482825590600052602060002090810192821561072c579160200282015b8281111561072b5782518260006101000a81548173ffffffffffffffffffffffffffffffffffffffff021916908373ffffffffffffffffffffffffffffffffffffffff160217905550916020019190600101906106d3565b5b509050610739919061073d565b5090565b61077d91905b8082111561077957600081816101000a81549073ffffffffffffffffffffffffffffffffffffffff021916905550600101610743565b5090565b905600a165627a7a72305820e2a5d23f1e42fce13b1e3fbce44249e5c40d996aef3c1fb37d9b2190474abd7b0029",
  "source": "pragma solidity ^0.4.18;\r\n\r\ncontract Lottery {\r\n    address public manager;\r\n    address[] public players;\r\n    \r\n    event LotteryDrawnEvent(address winner, uint gains);\r\n    event PlayerEnteredEvent(address player, uint pool);\r\n\r\n    bool public lotteryOpen;\r\n\r\n    constructor() public {\r\n        manager = msg.sender;\r\n        lotteryOpen = true;\r\n    }\r\n\r\n    function enter() public payable {\r\n        require(lotteryOpen);\r\n        require(msg.value > .02 ether);\r\n\r\n        players.push(msg.sender);\r\n\r\n        emit PlayerEnteredEvent(msg.sender, address(this).balance);\r\n    }\r\n\r\n    function pickWinner(uint randomNumber) public restricted {\r\n        lotteryOpen = false;\r\n        uint winningIndex = randomNumber % players.length;\r\n        uint gains = address(this).balance;\r\n        players[winningIndex].transfer(address(this).balance);\r\n\r\n        emit LotteryDrawnEvent(players[winningIndex], gains);\r\n        \r\n        players = new address[](0);\r\n        //lotteryOpen = true;\r\n        //uint index = random() % players.length;\r\n        //players[index].transfer(this.balance);\r\n        //players = new address[](0);\r\n    }\r\n\r\n    modifier restricted() {\r\n        require(msg.sender == manager);\r\n        _;\r\n    }\r\n\r\n    function getPlayers() public view returns (address[]) {\r\n        return players;\r\n    }\r\n\r\n    function getBalance() public view returns(uint) {\r\n        return address(this).balance;\r\n    }\r\n}",
  "sourcePath": "D:\\Node\\lottery\\contracts\\Lottery.sol",
  "compiler": {
    "name": "solc",
    "version": "0.4.24+commit.e67f0147.Emscripten.clang"
  },
  "schemaVersion": "2.0.1",
  "updatedAt": "2018-11-08T07:27:44.554Z"
}